:100000000C9461000C94B6010C947E000C947E005C
:100010000C947E000C947E000C947E000C947E0068
:100020000C947E000C947E000C947E000C947E0058
:100030000C947E000C947E000C947E000C947E0048
:100040000C947E000C947E000C947E000C947E0038
:100050000C947E00040309042C03730061006B0000
:10006000730061006B006D0075006C00610068003A
:10007000400067006D00610069006C002E006300A5
:100080006F006D0012035500530042004D006F00D9
:1000900074006F0072001201100100000008C01609
:1000A000DC050001010200010902190001010080C4
:1000B000190904000001030000000705810308007E
:1000C000640011241FBECFE5D8E0DEBFCDBF11E034
:1000D000A0E6B0E0E2E8F4E102C005900D92A4379A
:1000E000B107D9F711E0A4E7B1E001C01D92A13B2F
:1000F000B107E1F70E94FE020C943F0A0C94000045
:1001000085B7826085BF8BB780648BBF8BE480939B
:1001100083018AE58093820108951F93CF93DF9333
:1001200090919301935097FD8DC020919001809103
:100130008F018D3209F084C0983009F081C0CCE085
:10014000D0E0C21BD109C956DE4F83EC8093770102
:100150008AE580936000109274018881807629F08E
:10016000CE010E942803282F62C09A81109280013C
:100170008981882321F41092810122E052C08530C8
:1001800019F4909394014CC08630B1F58B81813085
:1001900019F486E990E025C0823041F488EA90E0C5
:1001A000909392018093910129E122C08330F9F468
:1001B0008A81882341F484E590E0909392018093B2
:1001C000910124E015C0813041F488E590E09093DE
:1001D0009201809391012CE20BC0823041F484E8BB
:1001E00090E0909392018093910122E101C020E080
:1001F00080E4809374011BC0883021F421E086E9FB
:1002000091E011C0893019F49093960109C08A30A9
:1002100011F421E006C08B3019F48BE48093830144
:1002200020E080E891E090939201809391018F818A
:10023000882321F48E81821708F4282F20936100EF
:10024000109293018091600084FF46C0809161000C
:100250008F3F09F441C0182F893008F018E0811B46
:10026000809361008091770198E8892780937701D6
:10027000112321F12091910130919201809174011B
:1002800086FF0AC0912FF901A8E7B1E084918D9310
:1002900031969150D9F708C0912FD901E8E7F1E0E4
:1002A0008D9181939150E1F7C90101961150810F11
:1002B000911D1F5F909392018093910188E791E0D7
:1002C000612F0E94B201612F6C5F6C3019F08FEFCB
:1002D000809361006093600094E180B38C7031F48E
:1002E0009150D9F71092940110928E01DF91CF9125
:1002F0001F9108951F93DC01162F8091820184FFC6
:1003000007C08091830198E889278093830103C007
:100310008AE580938201912FE4E8F1E08D91819349
:1003200091501916DCF384E891E0612F0E94B2012C
:100330001C5F109382011F910895A82FB92F80E0B0
:1003400090E041E050EA609530E009C02D918227AD
:100350009795879510F084279527305EC8F36F5FD7
:10036000A8F30895EADF8D939D930895CF93CFB7B7
:10037000CF93C395839BE9F7839B09C0839B07C0F9
:10038000839B05C0839B03C0839B01C0A3C0DF93F5
:10039000C0919001DD27C956DE4F839B02C0DF91DB
:1003A000EBCF2F930F931F9300B32FEF03FB20F995
:1003B0004F933F9310B34FEF012703FB21F93BE02D
:1003C00031C04E7F012F10B3216028C0102F4D7F08
:1003D0002260000000B329C04B7F2460012F000081
:1003E00010B32BC010B3477F28602AC04F7E00B3E4
:1003F00020612CC04F7D10B320622FC04F7B00B313
:10040000206432C0422700B349934FEF0000102709
:1004100013FB20F910B31C70C9F1297F91F2012759
:1004200003FB21F900B3237F89F2315058F11027E3
:1004300013FB22F910B3277E79F2012703FB23F97E
:100440002F7C81F200B3102713FB24F92F7971F26E
:1004500000C010B3012703FB25F92F7359F200C028
:1004600000B3102713FB26F9223040F200C010B36E
:10047000012703FB27F9243028F64F77206810B3B3
:100480000000F9CF10E41ABF002719C03B50319586
:10049000C31BD04010E41ABF0881033CF9F00B34B1
:1004A000E9F020918E011981110F1213EDCF4A81CD
:1004B000441F093641F10D3211F0013E29F7009336
:1004C00095013F914F911F910F912F91DF91CAB7E5
:1004D000C6FD4FCFCF91CFBFCF91189520919501F9
:1004E000222379F310919301112369F534306AF1D5
:1004F0003093930120938F01109190013BE0311BC9
:100500003093900122C0009193010130E4F40AE598
:100510004F7049F43091600034FD19C000936000C1
:10052000C7E7D1E018C03091820134FD10C00093BC
:100530008201C3E8D1E00FC02795A8F45150A9F477
:10054000220F0000F9CF4AE503C042ED01C0432F5E
:10055000C4E1D0E032E011B31C60939A11BB02B346
:1005600020E41CE05F93012756E002BB279520F4AE
:10057000515021F4220FF9CF012756E000003B5AD9
:1005800002BBD0F2279528F4515029F4220F000025
:10059000F9CF012756E0279502BB20F4515021F4F2
:1005A000220FF9CF012756E02991332302BB21F610
:1005B000037F10919401110FC651D04002BB11F07E
:1005C00010938E0110E41ABF086011B3137F402FFF
:1005D000437F5F9100C000C002BB11BB42BB71CF23
:1005E00020E030E054E006C0452F4A95F1F7A89589
:1005F0002F5F3F4F28173907B8F308958FEF8ABB55
:100600001BBA87BB84BB8FE085BB81B3836F81BB83
:1006100081E88FBD8AE08EBD2EE088E190E00FB6C4
:10062000F894A89581BD0FBE21BD0E9480008B9AD1
:1006300020E040E757E1A895CA010197F1F72F5F45
:100640002A3FC9F78B987894A8950E948D00FCCF1B
:10065000CF93DF93DC011092760110927501119611
:100660008C9111978BBB882391F412968C918130D9
:1006700049F0813020F0823009F0A3C005C0949881
:10068000969A9FC0949801C0949A96989AC0813087
:1006900031F412968C9190E09BBD8ABD92C082305D
:1006A00049F412968D919C91139790936B008093CF
:1006B0006A0087C08330C1F58FE085BB1296CD916B
:1006C000DC91139760916A0070916B0040E050E0FC
:1006D00034E022C014968C911497823011F4FA0100
:1006E00005C0882359F4FA01E095F095E370F070A5
:1006F000EE0FFF1FEE59FF4F808185BB80E090E039
:1007000005C0232F2A95F1F7A8950196861797071C
:10071000C0F3A8954F5F5F4F4C175D07D8F2509319
:100720007601409375014DC0843009F04AC012969D
:100730006C9170E0882777FD8095982F0E94E506E0
:1007400027EC31E74CE451E40E94BB050E94C30949
:1007500020E030E04FE254E40E948E050E94E50361
:10076000CB017093B0016093AF0160E070E054E0A2
:10077000E0E2FEE4E81BF90B1DC0DF9A20E030E068
:1007800006C0452F4A95F1F7A8952F5F3F4F2817D0
:100790003907B8F3DF9820E030E006C0452F4A95CE
:1007A000F1F7A8952F5F3F4F2E173F07B8F3A89595
:1007B0006F5F7F4F6E31710500F37093AE016093F0
:1007C000AD0180E0DF91CF910895EF92FF920F93FA
:1007D0001F937B018C0120E030E040E05FE40E9449
:1007E000B50688238CF0C801B70120E030E040E076
:1007F0005FE40E945D050E9443079B01AC0120500D
:1008000030404040504806C0C801B7010E9443072D
:100810009B01AC01B901CA011F910F91FF90EF90AC
:100820000895A0E0B0E0E7E1F4E00C948C09DC016D
:100830002B01FA019C91923008F439C1EB018881B7
:10084000823008F433C1943069F4843009F02FC148
:1008500011969C9111978981981709F428C1ACE6EB
:10086000B0E025C1843009F421C18230A9F492306E
:1008700009F01DC19A01AD0188E0EA010990AE01BD
:10088000E90109929E018150C1F7E2018981119627
:100890009C918923818308C1923009F407C1129683
:1008A0002D903C901397EB018A819B811496AD901B
:1008B000BD90CD90DC901797EC80FD800E811F815C
:1008C0009101281B390BB90137FF04C06627772730
:1008D000621B730B603271050CF061C012161306B7
:1008E0006CF537014801062E04C0969487947794DE
:1008F00067940A94D2F721E030E040E050E004C071
:10090000220F331F441F551F6A95D2F721503040E4
:10091000404050402E213F214023512321153105D5
:100920004105510521F021E030E040E050E079013F
:100930008A01E628F728082919293CC0232BD1F180
:10094000260E371E35014601062E04C09694879464
:10095000779467940A94D2F721E030E040E050E0C9
:1009600004C0220F331F441F551F6A95D2F7215030
:100970003040404050402A213B214C215D2121152F
:1009800031054105510521F021E030E040E050E023
:1009900059016A01A628B728C828D9280BC0821592
:1009A00093052CF01C01AA24BB24650103C0EE248E
:1009B000FF24870111969C91D20111968C91981772
:1009C00009F445C0992339F0A80197012A193B0978
:1009D0004C095D0906C0A60195012E193F09400B7F
:1009E000510B57FD08C01182338222822483358344
:1009F000468357831DC081E081833382228288270A
:100A00009927DC01821B930BA40BB50B8483958380
:100A1000A683B7830DC0220F331F441F551F2483A5
:100A200035834683578382819381019793838283A1
:100A30002481358146815781DA01C9010197A109D5
:100A4000B1098F5F9F4FAF4FBF4328F30BC0918316
:100A500033822282EA0CFB1C0C1D1D1DE482F582F0
:100A60000683178383E08083248135814681578103
:100A700057FF1AC0C901AA2797FDA095BA2F817008
:100A80009070A070B0705695479537952795822B3A
:100A9000932BA42BB52B84839583A683B783828164
:100AA0009381019693838283DF0101C0D201CD013E
:100AB000CDB7DEB7E2E10C94A809A0E2B0E0E3E62E
:100AC000F5E00C94980969837A838B839C832D834A
:100AD0003E834F835887E9E0EE2EF12CEC0EFD1E8D
:100AE000CE010196B7010E94BB088E010F5E1F4F19
:100AF000CE010596B8010E94BB088A8991E089273A
:100B00008A8BC701B801AE01475E5F4F0E94110496
:100B10000E94E607A096E6E00C94B409A0E2B0E0DB
:100B2000E4E9F5E00C94980969837A838B839C83CC
:100B30002D833E834F835887F9E0EF2EF12CEC0E86
:100B4000FD1ECE010196B7010E94BB088E010F5E0B
:100B50001F4FCE010596B8010E94BB08C701B8011E
:100B6000AE01475E5F4F0E9411040E94E607A09607
:100B7000E6E00C94B409A0E2B0E0E1ECF5E00C94FE
:100B80008C0969837A838B839C832D833E834F8377
:100B90005887CE010196BE01675F7F4F0E94BB0858
:100BA000CE010596BE016F5E7F4F0E94BB089985FE
:100BB000923088F089898230C8F0943019F48230FC
:100BC00051F404C0843029F4923081F48CE690E032
:100BD000C6C0923049F420E09A858A89981321E0B2
:100BE0002A87CE010996BBC0823049F420E09A855D
:100BF0008A89981321E02A8BCE014196B0C02D84BA
:100C00003E844F8458886D887E888F88988CEE2427
:100C1000FF248701AA24BB24650140E050E060E086
:100C200070E0E0E0F0E0C10181709070892BE9F0A4
:100C3000E60CF71C081D191D9A01AB012A0D3B1D7E
:100C40004C1D5D1D80E090E0A0E0B0E0E614F704EC
:100C50000805190520F481E090E0A0E0B0E0BA01B9
:100C6000A901480F591F6A1F7B1FAA0CBB1CCC1C73
:100C7000DD1C97FE08C081E090E0A0E0B0E0A82A6B
:100C8000B92ACA2ADB2A3196E032F10549F0660C0E
:100C9000771C881C991C5694479437942794C3CF8B
:100CA000FA85EA892B893C898B859C85280F391F19
:100CB0002E5F3F4F17C0CA0181709070892B61F081
:100CC00016950795F794E79480E090E0A0E0B0E8EF
:100CD000E82AF92A0A2B1B2B769567955795479595
:100CE0002F5F3F4F77FDE7CF0CC0440F551F661FA6
:100CF000771F17FD4160EE0CFF1C001F111F2150D4
:100D00003040403090E0590790E0690790E479075F
:100D100060F32B8F3C8FDB01CA018F779070A0703E
:100D2000B07080349105A105B10561F447FD0AC09A
:100D3000E114F1040105110529F0405C5F4F6F4F8C
:100D40007F4F40781A8EFE1711F081E08A8F4D8F09
:100D50005E8F6F8F78A383E0898FCE0149960E94C2
:100D6000E607A096E2E10C94A809A8E1B0E0EBEB5D
:100D7000F6E00C94980969837A838B839C832D8396
:100D80003E834F83588789E0E82EF12CEC0EFD1E40
:100D9000CE010196B7010E94BB088E010F5E1F4F66
:100DA000CE010596B8010E94BB088985823040F0CB
:100DB0008989823028F0C701B8010E94330901C037
:100DC0008FEF6896E6E00C94B409A8E0B0E0EBEE93
:100DD000F6E00C9495099B01AC0183E08983DA016C
:100DE000C9018827B7FD83959927AA27BB27B82E65
:100DF000211531054105510519F482E089833AC076
:100E00008823A9F0203080E0380780E0480780E898
:100E1000580729F460E070E080E09FEC30C0EE24D9
:100E2000FF248701E21AF30A040B150B02C07901B3
:100E30008A018EE1C82ED12CDC82CB82ED82FE822B
:100E40000F831887C801B7010E94970701971816EA
:100E5000190684F4082E04C0EE0CFF1C001F111F9D
:100E60000A94D2F7ED82FE820F831887C81AD90A36
:100E7000DC82CB82BA82CE0101960E94E6072896D8
:100E8000E9E00C94B109ACE0B0E0E9E4F7E00C94DF
:100E90009C0969837A838B839C83CE010196BE0172
:100EA0006B5F7F4F0E94BB088D81823061F1823081
:100EB00050F1843021F48E81882351F12EC02F818E
:100EC000388537FD20C06E812F3131051CF0662337
:100ED000F9F023C08EE190E0821B930B29853A85BF
:100EE0004B855C8504C056954795379527958A951F
:100EF000D2F76623B1F050954095309521953F4F3C
:100F00004F4F5F4F0EC020E030E040E050E009C09E
:100F10002FEF3FEF4FEF5FE704C020E030E040E00D
:100F200050E8B901CA012C96E2E00C94B809EF929E
:100F3000FF920F931F937B018C0180E0E81680E005
:100F4000F80681E0080780E0180788F48FEFE816BC
:100F5000F1040105110531F028F088E090E0A0E0EF
:100F6000B0E017C080E090E0A0E0B0E012C080E008
:100F7000E81680E0F80680E0080781E0180728F00E
:100F800088E190E0A0E0B0E004C080E190E0A0E063
:100F9000B0E020E230E040E050E0281B390B4A0B83
:100FA0005B0B04C016950795F794E7948A95D2F7E2
:100FB000F701EC58FF4F8081281B31094109510985
:100FC000C9011F910F91FF90EF900895DF92EF926A
:100FD000FF920F931F93FC01E480F5800681178137
:100FE000D1808081823048F480E090E0A0E1B0E0E0
:100FF000E82AF92A0A2B1B2BA5C0843009F49FC0CC
:10100000823021F4EE24FF24870105C0E114F104AD
:101010000105110519F4E0E0F0E096C062817381EA
:101020009FEF623879070CF05BC022E83FEF261B88
:10103000370B2A3131052CF020E030E040E050E061
:101040002AC0B801A701022E04C07695679557956E
:1010500047950A94D2F781E090E0A0E0B0E004C0A8
:10106000880F991FAA1FBB1F2A95D2F70197A109C4
:10107000B1098E219F21A023B1230097A105B105BD
:1010800021F081E090E0A0E0B0E09A01AB01282BD4
:10109000392B4A2B5B2BDA01C9018F779070A07036
:1010A000B07080349105A105B10539F427FF09C05E
:1010B000205C3F4F4F4F5F4F04C0215C3F4F4F4F6D
:1010C0005F4FE0E0F0E02030A0E03A07A0E04A0700
:1010D000A0E45A0710F0E1E0F0E079018A0127C0AE
:1010E0006038710564F5FB01E158FF4FD801C70175
:1010F0008F779070A070B07080349105A105B10514
:1011000039F4E7FE0DC080E490E0A0E0B0E004C058
:101110008FE390E0A0E0B0E0E80EF91E0A1F1B1F6D
:1011200017FF05C016950795F794E794319687E069
:1011300016950795F794E7948A95D1F705C0EE24A4
:10114000FF248701EFEFF0E06E2F67956627679524
:10115000902F9F77D794DD24D7948E2F8695492F93
:10116000462B582F5D29B701CA011F910F91FF909F
:10117000EF90DF900895FC01DB01408151812281D5
:10118000622F6F7770E0221F2227221F9381892F01
:10119000880F822B282F30E0991F9927991F1196CD
:1011A0009C93119721153105A9F54115510561054C
:1011B000710511F482E037C082E89FEF13969C938B
:1011C0008E9312979A01AB0167E0220F331F441FE1
:1011D000551F6A95D1F783E08C930DC0220F331F02
:1011E000441F551F12968D919C911397019713964A
:1011F0009C938E931297203080E0380780E0480758
:1012000080E4580758F314962D933D934D935C93C7
:10121000179708952F3F310579F441155105610560
:10122000710519F484E08C93089564FF03C081E094
:101230008C9312C01C9210C02F57304013963C93D1
:101240002E93129783E08C9387E0440F551F661FFF
:10125000771F8A95D1F7706414964D935D936D93C3
:101260007C93179708951F93DC01FB019C919230AA
:1012700008F447C08081823008F443C0943051F4B0
:1012800011961C91843099F58181682F70E0611B63
:1012900071093FC0843021F0923031F48230B9F1CD
:1012A0008181882389F12DC011961C91119782307C
:1012B000F1F081811817D9F412962D913C91139772
:1012C000828193818217930794F028173907BCF025
:1012D00014968D919D910D90BC91A02D2481358106
:1012E00046815781281739074A075B0718F41123ED
:1012F00041F00AC082179307A407B50740F41123F1
:1013000019F061E070E005C06FEF7FEF02C060E0B0
:1013100070E0CB011F9108952F923F924F925F9200
:101320006F927F928F929F92AF92BF92CF92DF92F5
:10133000EF92FF920F931F93CF93DF93CDB7DEB75A
:10134000CA1BDB0B0FB6F894DEBF0FBECDBF0994EE
:101350002A88398848885F846E847D848C849B8445
:10136000AA84B984C884DF80EE80FD800C811B8153
:10137000AA81B981CE0FD11D0FB6F894DEBF0FBE82
:10138000CDBFED0108953BD080F09F3740F491111F
:101390000EF04DC060E070E080E89FEB089526F409
:1013A0001B16611D711D811D01C01BC0882371F4B6
:1013B000772321F09850872B762F07C0662311F4EE
:1013C00099270DC09051862B70E060E02AF09A9525
:1013D000660F771F881FDAF7880F9695879597F91C
:1013E00008959F3F31F0915020F487957795679548
:1013F000B795880F911D9695879597F9089525D0F3
:10140000A0F0BEE7B91788F4BB279F3860F4161622
:10141000B11D672F782F8827985FF7CF869577952E
:101420006795B11D93959639C8F30895E894BB2745
:1014300066277727CB0197F9089557FD9058440FF9
:10144000551F59F05F3F71F04795880F97FB991F23
:1014500061F09F3F79F087950895121613061406E0
:10146000551FF2CF4695F1DF08C01616170618066D
:10147000991FF1CF86957105610508940895F89438
:02148000FFCF9C
:101482005AFF0900050006000A006400000000007F
:101492000000000000010202030303030404040429
:1014A20004040404050505050505050505050505EE
:1014B20005050505060606060606060606060606CE
:1014C20006060606060606060606060606060606BA
:1014D200060606060707070707070707070707079E
:1014E200070707070707070707070707070707078A
:1014F200070707070707070707070707070707077A
:101502000707070707070707070707070707070769
:10151200070707070808080808080808080808084D
:101522000808080808080808080808080808080839
:101532000808080808080808080808080808080829
:101542000808080808080808080808080808080819
:101552000808080808080808080808080808080809
:1015620008080808080808080808080808080808F9
:1015720008080808080808080808080808080808E9
:1015820008080808080808080808080808080808D9
:041592000808080835
:00000001FF
